:020000040800F2
:10000000A0070020550200087D1C0008751C000890
:10001000791C00085D030008DD1D000800000000D9
:10002000000000000000000000000000851C000827
:100030006103000800000000811C0008891C000802
:100040006F0200086F0200086F0200086F020008CC
:100050006F0200086F0200086F0200086F020008BC
:100060006F0200086F0200086F0200086F020008AC
:100070006F0200086F0200086F0200086F0200089C
:100080006F0200086F0200086F0200086F0200088C
:100090006F0200086F0200086F0200086F0200087C
:1000A0006F0200086F0200086F0200086F0200086C
:1000B0006F0200086F0200086F0200086F0200085C
:1000C0006F0200086F0200086F0200086F0200084C
:1000D0006F0200086F0200086F0200086F0200083C
:1000E0006F0200086F0200086F0200086F0200082C
:1000F0006F0200086F0200086F0200086F0200081C
:100100006F0200086F0200086F0200086F0200080B
:100110006F0200086F0200086F0200086F020008FB
:100120006F0200086F0200086F0200086F020008EB
:100130006F0200086F0200086F0200086F020008DB
:100140006F0200086F0200086F0200086F020008CB
:100150006F0200086F0200086F0200086F020008BB
:100160006F0200086F0200086F0200086F020008AB
:100170006F0200086F0200086F0200080000000014
:100180006F0200086F02000800F002F800F052F859
:1001900014A696E8000CB244B344DA4501D100F04D
:1001A00049F8BAE80F000FA696E83000A5EB040561
:1001B00004EB0607AAEB0704A7F101074FEA1515A0
:1001C0004FEA3414A4F10104AC4201D300F032F838
:1001D00013F0010F18BFFB1A43F0010300F001F800
:1001E000DBE718474821000068210000103A24BFCF
:1001F00078C878C1FAD8520724BF30C830C144BF8C
:1002000004680C6070470000704700000023002461
:1002100000250026103A28BF78C1FBD8520728BF16
:1002200030C148BF0B6070471FB502F048F81FBDD2
:1002300010B510BD00F058F81146FFF7F5FF01F0BA
:10024000D5FD00F076F803B4FFF7F2FF03BC00F031
:100250007DF800000948804709480047FEE7FEE7AF
:10026000FEE7FEE7FEE7FEE7FEE7FEE7FEE7FEE766
:1002700004480549054A064B704700008D1C0008DC
:1002800089010008A0010020A0070020A003002091
:10029000A00300204FF0000200B513469446964696
:1002A000203922BFA0E80C50A0E80C50B1F1200189
:1002B000BFF4F7AF090728BFA0E80C5048BF0CC037
:1002C0005DF804EB890028BF40F8042B08BF704795
:1002D00048BF20F8022B11F0804F18BF00F8012B07
:1002E0007047704770477047754600F02BF8AE4670
:1002F00005006946534620F00700854618B020B532
:10030000FFF7B6FFBDE820404FF000064FF00007B2
:100310004FF000084FF0000BAC46ACE8C009ACE869
:10032000C009ACE8C009ACE8C00921F007018D465E
:10033000704710B50446AFF300802046BDE810407A
:10034000FFF781BF004870471000002001491820C6
:10035000ABBEFEE72600020070470000FEE700008B
:10036000704700002DE9F04F83B00E68002E00F0BA
:10037000E38000F1200241F60004009200F13847CA
:10038000C4F6000407224FEAB725A04208BF0622A0
:10039000062D38BF4FEAB722002500274FF000088E
:1003A00001920AE00E6808F1010836FA08F207F136
:1003B000020705F1040500F0BF80012202FA08F4EB
:1003C00016EA0409EED0D1F804A00AF0030CACF14F
:1003D0000106022E16D286680322CB68BA409643E5
:1003E000BB403343836043686FEA020E23EA040292
:1003F000CAF3001303FA08F34FEA480B1A434260AA
:100400001AE000BFBCF1030F10D1C66A4FF0030C15
:10041000A643CAF3C00404FA08F42643C6620CFAE1
:1004200007F66FEA060EBB4628E000BF032202FA79
:1004300007F66FEA060EBB46C2688B6802EA0E0238
:1004400003FA0BF31A43BCF1020FC26016D16FF02E
:100450000302009C02EA580205F01C060F2354F820
:1004600002C003FA06FA0B692CEA0A0CB34043EA0D
:100470000C03A350D1F804A00AF0030C02680CFA94
:100480000BF302EA0E021A431AF4403F026089D0CD
:1004900041F26003C4F202031A6840F2004E42F0D7
:1004A00001021A601A68C4F2010E02F001020292FF
:1004B000029A28F003024FF6084C7244CFF6FF7CF4
:1004C00052F80C3005F00C060F24B440A343019CF5
:1004D00004FA06F6334342F80C30DEF808204B6885
:1004E00042EA090640F20C4CDC0258BF22EA090637
:1004F000CEF80860C4F2010CDCF800209C0242EA4D
:10050000090658BF22EA0906CCF80060DEF804208C
:100510009C0342EA090658BF22EA0906CEF80460A5
:10052000DEF80020DB0342EA090658BF22EA09068A
:10053000CEF8006036E700BF03B000F000B830BC72
:10054000BDE8C08F1823002A08BF2823C150704778
:1005500040F29C10C2F200000068704740F20000B8
:1005600040F29C11C2F20000C2F2000100780A6859
:10057000104408607047000080B5032000F07AF84E
:100580000F2000F009F800281CBF012080BD00F0FA
:100590002BF8002080BD0000B0B540F20005C2F28B
:1005A00000052978F1B1044640F20800C2F20000CB
:1005B0004FF47A720068B2FBF1F1B0FBF1F000F099
:1005C000A3FD01460F2C4FF001000AD8002918BFE7
:1005D000B0BD4FF0FF302146002200F01FF8002090
:1005E0006C60B0BD0120B0BD82B041F25800C4F2D1
:1005F0000200816841F001018160816801F0010120
:1006000001910199016841F080510160006800F09A
:1006100080500090009802B07047000010B54EF670
:100620000C5CCEF2000CDCF80030C3F3022E8EF02E
:100630000704042C28BF0424BEF103034FF0FF3E3F
:100640000EFA04F438BF0023A14399400EFA03F3D5
:100650009A43114300F00F0200F160430901043A8C
:1006600003F564436244002848BF02F10C0319708B
:1006700010BD00004EF60C51CEF200010A684FF694
:10068000FF031A4060F30A2242F0806040F0FD70E0
:100690000860704747F20001C4F200010A68B0F533
:1006A000007F02F4C06031D1B0F5007F2CD0086823
:1006B000012262F34A20086040F20800C2F2000002
:1006C0000068322250434DF68362C4F21B32A0FB15
:1006D0000202900C4A69520511D5421C0FD04A699A
:1006E00052050CD558B14A69520508D5012806D0E3
:1006F0004A69520503D50228A0F10400EAD14869ED
:10070000400544BF0320704700207047B0F5806F5C
:10071000FAD00868022262F34A200860002070477D
:1007200047F20000C4F20000006800F4C0607047A7
:100730002DE9F04381B0002800F08C8042F20009DE
:10074000C4F202090446D9F8000000F0070088420C
:100750000CD2D9F8000020F007000843C9F80000C7
:10076000D9F8000000F00700884273D1206841F2F8
:10077000080610F00202C4F202060AD0A368376825
:1007800007F0F007BB4204D9376827F0F0073B4376
:100790003360C30734D0606856F8082C50B1022883
:1007A00004D003280AD192010AD453E0920307D45B
:1007B00050E000BF920703D44CE000BF520549D57A
:1007C0008846316821F0030108433060FFF7C0FE1E
:1007D000054641F2883700BF3068616800F00C00C0
:1007E000B0EB810F08D0FFF7B3FE401BB842F3D93E
:1007F000032001B0BDE8F0832068414600F002020A
:1008000052B1A268336803F0F0039A4204D233680D
:1008100023F0F0031A433260D9F8002002F00702F7
:100820008A420CD9D9F8002022F007020A43C9F8FD
:100830000020D9F8002002F007028A420AD14107BD
:100840000CD4000712D43068716810F00C0019D174
:100850001EE000BF012001B0BDE8F0833168E2680E
:1008600021F4E061114331600007ECD53068216963
:1008700020F4605040EAC10030603068716810F0C8
:100880000C0005D00C282BD101F00301012927D140
:1008900056F8081C042211F008016FF0070108BF88
:1008A0008C21715808BF0822D14042F2FC2201F08D
:1008B0000F01C0F6000252F8211000280A4618BFA6
:1008C00000220C2838D1706800F00300022811D0F3
:1008D000032804BF41F20021C0F27A010EE000BFFC
:1008E00004281FD0082823D141F20022C0F27A0246
:1008F00022E000BF42F20041C0F2F4017068726869
:10090000C0F30210C2F30622514372680130B1FBFA
:10091000F0F0C2F34161022202EB4101B0FBF1F2BF
:100920000AE000BF42F20042C0F2F40204E000BF5D
:10093000002200210C28C6D0306842F2EC21C0F31E
:100940000310C0F60001085C00F01F0022FA00F15D
:1009500040F20400C2F2000040F208020068C2F255
:100960000002116001B0BDE8F043FFF715BE0000C2
:10097000002804BF012070472DE9F04383B041F205
:1009800000060446C4F20206B068F168227800F05E
:100990000C09D00601F003081ED42078C00700F02F
:1009A0008880B9F1080F00F07D80B9F10C0F08BF05
:1009B000B8F1030F76D061683068B1F5803F07D099
:1009C000B1F5A02F40F0208240F4802030603068E4
:1009D00040F48030306021E2B9F1000F1CD0B9F151
:1009E0000C0F08BFB8F1010F16D0A16930680029BB
:1009F00000F0B88140F001003060FFF7A9FD054626
:100A00003068800700F1C081FFF7A2FD401B02287B
:100A10004FF00300F4D92EE33068800703D5A069B6
:100A2000002800F0DD82256A3068000700F12A8185
:100A3000D6F89400000900F0F000854200F2288109
:100A40003068B9F1000F40F008003060306820F0E5
:100A5000F00040EA050030607068E16920F47F40F2
:100A600040EA0120706040F08682B06DC00000F165
:100A70002382B06D40F08050B065B06D00F08050C2
:100A800002900298FFF74CFEB16D21F08051B165E4
:100A9000B0F5007F00F01682802D40F253820320D3
:100AA0005BE200BF3068800303D56068002800F077
:100AB0009782207880072DD5B9F1040F1CD0B9F1A9
:100AC0000C0F08BFB8F1020F16D0E168306800299A
:100AD00000F0B48140F480703060FFF739FD0546C6
:100AE000306840050FD4FFF733FD401B02284FF05C
:100AF0000300F5D9BFE200BF3068400503D5E068C8
:100B0000002800F06D827068216920F0F85040EAFA
:100B100001607060207800075ED42078400775D4AB
:100B2000A06A002800F0EC82022840F0E380F06820
:100B3000E16A00F003028A4240F0F480226B6FF019
:100B40000F0300F0700103EB0212914240F0EA80C3
:100B5000616B00F4FE42B2EB012F40F0E380A16B29
:100B600000F40032073918BF01218A4240F0DA80D0
:100B7000E26B0023CFF6E07303EA025200F4C001F7
:100B8000A2F50012914240F0CD80216C4FF07E42E0
:100B900002EA016100F0C06001F17E41884240F04C
:100BA000C1803068800100F1AB82306840F0807015
:100BB0003060F06840F08070F060FFF7C9FC0446D8
:100BC0003068800100F19C82FFF7C2FC001B022804
:100BD0004FF00300F4D94EE26169D6F89400002981
:100BE00072D040F00100C6F89400FFF7B1FC054652
:100BF000D6F89400800790D4FFF7AAFC401B022887
:100C0000F6D9032003B0BDE8F08300BFB06D5FEA02
:100C1000C00808D4B06D40F08050B065B06D00F0F1
:100C200080500090009847F20007C4F2000738682F
:100C3000C00513D4386840F480703860FFF788FC32
:100C4000054600BF3868C00508D4FFF781FC401B8B
:100C500002284FF00300F5D90DE200BFA168D6F8D5
:100C60009000012908D0052940F0AE8040F0040032
:100C7000C6F89000D6F8900040F00100C6F8900049
:100C8000AFE000BF306800F0F00085427FF6D8AEDC
:100C9000B06DC00000F18A80B06D40F08050B0654A
:100CA000B06D00F0805001900198FFF739FDB16DF3
:100CB00021F08051B165B0F5007F00F07D80802D7E
:100CC00040F2CE800320D6E020F00100C6F8940068
:100CD000FFF73EFC054600BFD6F8940080077FF57D
:100CE0001CAFFFF735FC401B02284FF00300F3D97F
:100CF000C1E100BFB9F10C0F00F07281306820F043
:100D000080703060FFF724FC044600BF306880012B
:100D100040F1E080FFF71CFC001B02284FF00300AD
:100D2000F4D9A8E1B9F10C0F00F05A813068400104
:100D300000F156813068C00000F15281306820F027
:100D400080703060FFF704FC05463068800140F198
:100D50009581FFF7FDFB401B02284FF00300F4D9FB
:100D600089E100BF20F001003060FFF7F1FB05468C
:100D7000306880077FF511AEFFF7EAFB401B0228C1
:100D80004FF00300F4D976E1306840F0080030609D
:100D90003068D4E9071220F0F0001043306070682A
:100DA00020F47F4040EA01207060F6E5FFF7B8FCD0
:100DB000B0F5007F7FF483AF812D5BD30120A02DA0
:100DC00088BF022057E000BF20F00100C6F8900065
:100DD000D6F89000002920F00400C6F8900000F03A
:100DE0008580FFF7B5FB054641F28837D6F89000BD
:100DF000800700F18D80FFF7ABFB401BB842F5D9AF
:100E0000032003B0BDE8F08320F480303060306808
:100E1000002920F48020306000F08480FFF798FBE8
:100E2000054600BF306880033FF543AEFFF790FBF7
:100E3000401B64284FF00300F4D91CE120F48070BB
:100E40003060FFF785FB0546306840057FF562AEF0
:100E5000FFF77EFB401B02284FF00300F4D90AE1A4
:100E6000A5F17000B0FA80F04009802D08BF022083
:100E700001E000BF002042F20001C4F202010A6852
:100E800022F0070202440A60096801F0070181426A
:100E900040F0A680306840F0080030603068D4E947
:100EA000071220F0F00010433060706820F47F409B
:100EB00040EA012070605EE0FFF732FCB0F5007F91
:100EC0007FF4EAAD812D47D30120A02D88BF0220F9
:100ED00043E000BFF0684FF6FC71CFF6EE610840CA
:100EE000F060002003B0BDE8F08300BFFFF730FBE7
:100EF000054641F2883700BFD6F89000800707D535
:100F0000FFF726FB401BB8424FF00300F4D9B2E0D4
:100F1000B8F1000F3FF504AEB06D20F08050B06521
:100F2000FEE500BFFFF714FB054600BF30688003F5
:100F30007FF5BFADFFF70CFB401B64284FF00300AB
:100F4000F4D998E0A5F17000B0FA80F04009802D46
:100F500008BF022001E000BF002042F20001C4F2FD
:100F600002010A6822F0070202440A60096801F0DF
:100F70000701814234D1B068F16810F00C0005D04F
:100F80000C2831D101F0030101292DD1314651F84E
:100F9000942B12F00802324608BF0A464FF00401B3
:100FA000126808BF082122FA01F142F2FC2201F086
:100FB0000F01C0F6000252F8211000280A4618BF9F
:100FC00000220C283CD1F06800F00300022815D064
:100FD000032804BF41F20021C0F27A0112E000BFF1
:100FE000012003B0BDE8F08304281FD0082823D1D6
:100FF00041F20022C0F27A0222E000BF42F2004138
:10100000C0F2F401F068F268C0F30210C2F30622E5
:101010005143F2680130B1FBF0F0C2F341610222AA
:1010200002EB4101B0FBF1F20AE000BF42F20042E4
:10103000C0F2F40204E000BF002200210C28C2D05C
:10104000B06842F2EC21C0F30310C0F60001085C66
:1010500000F01F0022FA00F140F20400C2F200008A
:1010600040F208020068C2F200021160FFF794FA31
:1010700000283FF492AC03B0BDE8F083F06848F27A
:101080008C01CFF69D1104F12C0700EA010C8ECFE4
:10109000D4E90F546FF00F0040F2000E00EB021085
:1010A000CFF6E07E41EA0C010EEA05554FF07E4294
:1010B0000843A5F5001502EA046240EA032002F1A4
:1010C0007E420EF5F014284304EA473710433843B4
:1010D000F060306840F080703060F06840F0807000
:1010E000F060FFF735FA04463068800108D4FFF756
:1010F0002FFA001B02284FF00300F5D9BBE700BF11
:10110000002003B0BDE8F083411E0020B0EB116F5A
:101110001CBF012070474EF21002CEF20002516057
:101120004EF62351CEF20001F0230B7007219060A0
:101130001160704790F83C20012A04BF02207047DC
:1011400010B5D1E90232D1E900CE22F47C5223F469
:1011500070531A4348F2FF73CFF6F07303EA0E039D
:1011600042EA030E0A692CF477234EEA030C22F4B8
:1011700076224B6942EA0C021A438B6A22F47422EB
:1011800023F4702342EA030CD1F818E0046843F218
:101190000043C4F201039C424CEA0E4305D042F6E0
:1011A0000042C4F20102944210D123F07C7ED1E9C6
:1011B000073C496A0022CFF6F04202EA015141EAB7
:1011C0000E0123F00072114341EA0C030021636415
:1011D00080F83C10002010BD90F83C20012A4FF010
:1011E00002025AD010B580F83D20026843F2004C4C
:1011F0005368D2F808E0C4F2010C624505D042F60B
:101200000044C4F20104A24203D14C6823F47003E9
:1012100023430C6823F07003234340F6FF34C4F2E9
:101220000004A242536013DD43F2FF33C4F2010312
:101230009A421DDC40F60043C4F200039A421FD0DC
:1012400042F60043C4F201039A4219D01DE000BFE8
:10125000B2F1804F14D040F20043C4F200039A422E
:101260000ED040F60003C4F200039A4208D00CE00E
:1012700044F20003C4F201039A4201D0624504D152
:1012800089682EF08003194391600121002280F8C3
:101290003D1080F83C20BDE810401046704700002B
:1012A000002804BF0120704710B5044690F83D00A7
:1012B00028B9002084F83C00204600F023F80220E2
:1012C00084F83D002068211D00F0EAFC012084F82C
:1012D000480084F83E0084F83F0084F8400084F819
:1012E000410084F8420084F8430084F8440084F804
:1012F000450084F8460084F8470084F83D0000204B
:1013000010BD0000006842F60041C4F201018842AD
:1013100018BF704781B041F26000C4F2020001685A
:1013200041F400610160006800F4006000900098E2
:1013300001B0704790F83C20012A4FF0020271D0B2
:1013400010B580F83D2004688822A368CFF6FE72AD
:101350001A40A2600B684F2B34DC1F2B4EDD202B74
:1013600050D0302B4ED0402B40F0C880D1F804C074
:10137000D1F80CE0236A216A21F00102A4F1804136
:10138000A1F596314FEAB1210729226209D801223D
:1013900002FA01F111F0E50F1EBF216A21F00401EC
:1013A0002162A16923F00A0221F0F00141EA0E1145
:1013B00042EA0C02A1612262A16841F0470121F0DA
:1013C000300125E06F2B2FDDB3F5005F00F0868044
:1013D000B3F5805F1DD0702B40F09080D1E901C340
:1013E000C968A26843EA0C0322F47F4243EA012160
:1013F0001143A160A16841F0770109E013B1102BFE
:1014000040F07C80A16821F07001194341F0070190
:10141000A1600022012180F83D10002180F83C10DD
:10142000BDE8104010467047502B2BD0602B65D183
:10143000D1F804C0D1F80CE0236A226A43F20041DB
:10144000C4F201018C4222F01001216205D042F663
:101450000041C4F201018C4203D1216A21F0400114
:101460002162A16923F0A00221F4704141EA0E310A
:1014700042EA0C12A1612262A16841F0670121F0E9
:101480001001C5E7D1F804C0D1F80CE0236A216A45
:1014900021F00102A4F18041A1F596314FEAB1217A
:1014A0000729226209D8012202FA01F111F0E50FA1
:1014B0001EBF216A21F004012162A16923F00A0202
:1014C00021F0F00141EA0E1142EA0C02A161226210
:1014D000A16841F0570121F0200199E7D1E901C34A
:1014E000C968A26843EA0C0322F47F4243EA01215F
:1014F0001143A160A16841F4804189E7012289E795
:10150000002804BF012070472DE9F047044690F8F9
:101510003D000D4628B9002084F83C00204600F02C
:101520004BF8022084F83D0020684BF6F872816881
:10153000CFF6FE7211408160211D00F0B1FB2068E2
:101540004FF6FF7881688269D0F820C0D5E9003E67
:10155000D5E9026A43EA0109AB6922EA080246EAD0
:1015600003234FF6FC46B343D5E9076742EA0A0274
:1015700029691A4342EA062242EA01112CF0AA0222
:101580006B6942EA0E0241EA073142EA0312C0F8EF
:10159000089081610262012084F8480084F83E00CE
:1015A00084F83F0084F8440084F8450084F83D0046
:1015B0000020BDE8F087000080B586B0006840F2EA
:1015C0000041C4F2000188424FF000010591CDE9CD
:1015D0000311CDE901111BD0B0F1804F3CD141F294
:1015E0004C00C4F20200C16841F00101C160C16851
:1015F00001F0010100910099016841F001010160D1
:101600000068032100F0010000900098012017E01D
:1016100041F24C00C4F20200C16841F00201C16015
:10162000C16801F0020100910099016841F00101D7
:1016300001600068C02100F00100009000980220C5
:101640000191022102910021CDE90311059001A928
:101650004FF09040FEF786FE06B080BD80B586B0A4
:10166000006842F60042C4F2010200219042CDE936
:101670000411CDE90211019102D006B080BD00BF76
:1016800041F24C00C4F20200026842F00102026022
:10169000006800F00100009000984FF44070019045
:1016A0000220CDE9020101200491059001A94FF02B
:1016B0009040FEF757FE06B080BD000090F83C3029
:1016C000012B04BF022070474FEAB202052A00F244
:1016D000C1812DE9F041DFE812F0070021019100FE
:1016E000E5005500750100BF03681D6A1A6AA3F181
:1016F000804622F001021A621A46D3F804C052F85A
:1017000018EF8F68A6F59636D1F8008025F002050F
:101710004FEAB626072E45EA07050CD80127B74041
:1017200017F0E50F07D01F6A25F0080527F004071A
:101730001F62CF683D43072E0CD8012707FA06F633
:1017400016F0E50F1FBFD1E905672CF4407426435E
:1017500046EA070C4FF68C74CFF6FE740EEA0407C7
:1017600047EA0807C3F804C09F614F6809695F63CF
:101770001D629F6947F008079F619F6927F0040772
:101780009F615CE10368D3F820C01A6AA3F1804727
:1017900022F480321A621A46A7F596375D6852F82D
:1017A000548FD1F800E08E684FEAB727072F09D889
:1017B0000124BC4014F0E50F1EBF4C6925F48035B0
:1017C00045EA04252CF4003747EA06474FF68C76A5
:1017D000CFF6FE76033606EA080646EA0E065D6098
:1017E0005E654E6809699E651F625F6D47F0080778
:1017F0005F655F6D27F004075F6520E1036843F2D2
:1018000000461D6A1A6AC4F2010622F480721A6246
:101810001A46D3F804C052F81C8FB3428E68D1F830
:1018200000E025F4007545EA062505D042F600469D
:10183000C4F20106B34208D11E6A25F4006526F4FD
:1018400080661E62CE6845EA0625A3F18046A6F5AD
:1018500096364FEAB626072E0CD8012707FA06F669
:1018600016F0E50F1FBFD1E905672CF4405437434C
:1018700044EA071C4FF68C74CFF6FE7404EA0804A1
:1018800044EA0E07C3F804C0DF614F680969DF63EB
:101890001D62DF6947F00807DF61DF6927F0040791
:1018A000DF61CCE00368D3F820C01A6AA3F1804757
:1018B00022F480521A621A46A7F596375C6852F8ED
:1018C0001C8FD1F800E08E684FEAB727072F09D8A0
:1018D0000125BD4015F0E50F1EBF4D6924F480447D
:1018E00044EA85142CF4005747EA063748F6FF46C9
:1018F000CFF6FF6606EA080646EA0E265C60DE6161
:101900004E6809691E641F62DF6947F40067DF6182
:10191000DF6927F48067DF6190E000BF036843F26E
:1019200000461D6A1A6AC4F2010622F010021A6209
:101930001A46D3F804C052F8188FB3428E68D1F813
:1019400000E025F0200545EA061505D042F60046E0
:10195000C4F20106B34208D11E6A25F0800526F0C4
:1019600040061E62CE6845EA0615A3F18046A6F53C
:1019700096364FEAB626072E0CD8012707FA06F648
:1019800016F0E50F1FBFD1E905672CF4406437431B
:1019900044EA870C48F6FF44CFF6FF6404EA0804E3
:1019A00044EA0E27C3F804C09F614F6809699F632A
:1019B0001D629F6947F400679F619F6927F48067F4
:1019C0009F613BE00368D3F820C01A6AA3F1804707
:1019D00022F480121A621A46A7F596375D6852F80B
:1019E000548FD1F800E08E684FEAB727072F09D847
:1019F0000124BC4014F0E50F1EBF4C6925F480257E
:101A000045EA84252CF4001747EA065748F6FF46B6
:101A1000CFF6FF6606F5407606EA080646EA0E2689
:101A20005D605E654E680969DE651F625F6D47F443
:101A300000675F655F6D27F480675F650902136863
:101A4000194311600021BDE8F041002280F83C20DC
:101A5000084670470121002280F83C200846704764
:101A6000002804BF0120704710B5044690F83D00DF
:101A700028B9002084F83C00204600F023F802201A
:101A800084F83D002068211D00F00AF9012084F847
:101A9000480084F83E0084F83F0084F8400084F851
:101AA000410084F8420084F8430084F8440084F83C
:101AB000450084F8460084F8470084F83D00002083
:101AC00010BD00007047000080B5D9B10B1F4FEA70
:101AD000B30E43224FF03F0CBEF1040F38BF0CEBA6
:101AE000B302825C012A1CBF012080BDBEF1030F3E
:101AF0001ED8DFE80EF00319111500BF022280F88E
:101B00003F2018E090F83E20012A1CBF012080BD34
:101B1000022280F83E200EE0022280F841200AE0F6
:101B2000022280F8422006E0022280F8402002E0F3
:101B3000022280F84320026801F01F010120136A8D
:101B400000FA01F18B431362136A0B43A2F1804147
:101B5000A1F596314FEAB121062913624AD888408F
:101B600010F0650F46D0506C40F6FF31C4F2000112
:101B700040F400408A4250640EDD43F2FF30C4F26C
:101B80000100824216DC40F60040C4F200008242AE
:101B90001CD042F6004015E0B2F1804F16D040F262
:101BA0000040C4F20000824210D040F60000C4F2AF
:101BB000000009E044F20000C4F20100824205D0B6
:101BC00043F20040C4F2010082420CD19068072128
:101BD000C0F20101014006294FF0000008D0B1F524
:101BE000803F08BF80BD106840F0010010600020F9
:101BF00080BD00BF42F6FF30C4F2010082420DDC1E
:101C000040F2FF70C4F20000824215DCB2F1804F56
:101C1000DCD040F20040C4F20000D5E743F6FF708C
:101C2000C4F20100824213DC42F60040C4F201001B
:101C30008242C5D1CAE700BF40F60000C4F20000EE
:101C40008242C3D040F60040C4F20000BCE700BFAF
:101C500044F20000C4F201008242B7D044F6000012
:101C6000C4F20100824202BF506C40F40040506454
:101C7000B9E70000FEE70000FEE70000FEE7000015
:101C80007047000070470000FEF768BC4EF68850B1
:101C9000CEF20000016841F470010160704700005D
:101CA00040F6FF32D0F800C0C4F20002904229DCB6
:101CB000B0F1804F38D040F20042C4F200029042AE
:101CC00032D040F60002C4F2000290422CD042F61C
:101CD000FF32C4F20102904231DD43F6FF72C4F2DA
:101CE0000102904246DD44F20002C4F20102904239
:101CF0004CD044F60002C4F20102904246D044F2B5
:101D000000423FE040F60042C4F2000290420BD095
:101D100043F20042C4F20102904205D042F6004272
:101D2000C4F201029042D2D14A682CF0700342EA18
:101D3000030C42F6FF32C4F201029042CDDC40F2C5
:101D4000FF72C4F20002904208DCB0F1804F1DD057
:101D500040F20042C4F2000216E000BF40F600026A
:101D6000C4F20002904211D040F60042C4F20002D8
:101D70000AE000BF42F60042C4F20102904205D0E0
:101D800043F20042C4F20102904204D1CA682CF42A
:101D9000407342EA030C80B58A680B68D1F814E0FE
:101DA000C262A0F18042A2F596324FEAB222072A1F
:101DB000836207D8012303FA02F212F0E50F1CBF79
:101DC0000969016302682CF0800142F0040241EAD3
:101DD0000E01026001224261016080BDFEE7000049
:101DE0008268818910460122FEF7ACBBA4B0FEF7E1
:101DF000C3FB05A804302421FEF74CFA4FF4007011
:101E0000FEF748FC20B1EFF3108072B6FEE700BF8A
:101E10004FF48071089110210991012111910A213B
:101E20000220129107210590CDE90F00CDE9131092
:101E3000159005A8FEF79CFD20B1EFF3108072B657
:101E4000FEE700BF0F20169003201790002716A86A
:101E50000421CDE918771A97FEF76AFC20B1EFF359
:101E6000108072B6FEE700BF41F24C000997CDE941
:101E70000777CDE90577C4F20200016840F6000952
:101E800041F0010101600168C4F6000901F001019F
:101E900016911699016840F2004841F00401016072
:101EA00000684FF4407100F0040016901698484600
:101EB0000022C4F200084FF44075FEF743FB4FF0D8
:101EC00090404FF4806100224FF48066FEF73AFBA9
:101ED000059505AD012448462946CDE906470897F2
:101EE000FEF740FA4FF090402946CDE90564CDE970
:101EF0000777FEF737FA05A82C212397CDE921773C
:101F00001C97CDE91A77CDE91877CDE91677FEF75A
:101F1000C1F940F2B80008F59431C2F200004FF662
:101F2000FF734F2280E88600C0E90337C0E90577D8
:101F3000FFF7B6F920B1EFF3108072B6FEE700BFED
:101F40004FF48050209040F2B800C2F2000020A967
:101F5000FFF7F0F920B1EFF3108072B6FEE700BF93
:101F600040F2B800C2F20000FFF77AFD20B1EFF3B3
:101F7000108072B6FEE700BF40F2B8000025C2F242
:101F800000001DA9CDE91D551F95FFF725F928B1C2
:101F9000EFF3108072B600BFFEE700BF6020CDE90E
:101FA000160540F2B800C2F2000016A90022CDE9E1
:101FB0001855CDE91A551C95FFF780FB20B1EFF3BA
:101FC000108072B6FEE700BF40F2B800C2F2000017
:101FD00016A90422FFF772FB20B1EFF3108072B64E
:101FE000FEE700BF00254FF40050CDE90A054FF091
:101FF0000070CDE90D0540F2B800C2F2000005A95D
:102000000995CDE90755CDE905550C950F95FFF7D5
:1020100091F828B1EFF3108072B600BFFEE700BF61
:1020200040F2B800C2F20000FFF718FB40F20410C3
:10203000C2F200004FF08041C0E900150321CDE954
:10204000051501214FF0FF32CDE90715CDE90B153C
:1020500005A91795C0E9025205618561CDE90955C9
:102060000D95FFF74DFA18B1EFF3108072B6FEE749
:1020700040F204100025C2F2000016A9169518952A
:10208000FFF7AAF820B1EFF3108072B6FEE700BFA9
:1020900040F25010C2F200004FF6FF71C0E9025149
:1020A0000321CDE905150121CDE90715CDE90B1572
:1020B00005A91795C0E9008505618561CDE9095538
:1020C0000D95FFF71DFA18B1EFF3108072B6FEE719
:1020D00000201690189040F25010C2F2000016A98D
:1020E000FFF77AF820B1EFF3108072B6FEE700BF79
:1020F00040F2700540F2B807C2F20005C2F20007D4
:102100004FF480744FF090464FF4007828463946DB
:1021100000224B46CDE90049CDE90286049400F047
:1021200025F84FF48060CDE90046CDE9020605F1BF
:1021300024063046394604224B46CDF8108000F084
:1021400015F82846FFF74CFE3046FFF749FE4FF6DC
:102150000C64CFF6FF742846214600F02FF8304675
:102160004FF4FA7100F02AF8F5E7000070B5044664
:10217000DDE9060EDDE90465DDF820C084E80E0027
:102180002561A082002508461146A681C4F818E002
:10219000A4F81CC02562FFF797FCD4E90001006891
:1021A0004FEAB10104298FBF5C2142F2D822C0F668
:1021B000000252F82110455070BD000080B5B1F109
:1021C000FF3F016216DD59B302685B29D2F800E0D7
:1021D000DEF82CC024BF5A21016243684FEAB303E2
:1021E000042B2DD842F2D822C0F6000252F8233038
:1021F00027E000BFD0E900234942D2F800E05A2985
:10220000DEF82CC04FEAB30328BF5A21042B016229
:102210002CD842F2D822C0F6000252F8233026E031
:10222000D0E900014FEAB1010068042944D8DFE891
:1022300001F0033F373B33000021416380BD00BF05
:102240005C230CF10102514348F21F52C5F2EB121C
:10225000A1FB021251094EF803100269818A10464F
:102260000122BDE88040FEF76DB900BF5C230CF190
:102270000102514348F21F52C5F2EB12A1FB0212B8
:1022800051094EF803100269818A10460022BDE808
:102290008040FEF757B900BF0021816580BD00BFB7
:1022A0000021C16380BD00BF0021016480BD00BF6B
:1022B0000021816380BD00BF0021C16580BDF1EEBA
:1022C000100A4FF6FF71C0F2C03120EA010040F061
:1022D0004070E1EE100A7047340000003800000042
:1022E0003C0000004000000058000000000000001A
:1022F000000000000102030406070809A08601008F
:10230000400D0300801A060000350C0040420F000B
:1023100080841E0000093D0000127A000024F400B1
:1023200000366E010048E801006CDC025023000812
:102330000000002010000000EC01000860230008ED
:1023400010000020900700000C02000800000000B0
:10235000010000001000000000093D000000000026
:040000050800018965
:00000001FF
