:020000040800F2
:100000002008002055020008DD2C0008D52C00082F
:10001000D92C0008E5050008BD30000800000000EC
:10002000000000000000000000000000652F000834
:10003000E905000800000000E12C0008692F000815
:100040006F0200086F0200086F0200086F020008CC
:100050006F0200086F0200086F0200086F020008BC
:100060006F0200086F0200086F0200086F020008AC
:100070006F0200086F0200086F0200086F0200089C
:100080006F0200086F0200086F0200086F0200088C
:100090006F0200086F0200086F0200086F0200087C
:1000A0006F0200086F0200086F0200086F0200086C
:1000B0006F0200086F0200086F0200086F0200085C
:1000C0006F0200086F0200086F0200086F0200084C
:1000D0006F0200086F0200086F0200086F0200083C
:1000E0006F0200086F0200086F0200086F0200082C
:1000F0006F0200086F0200086F0200086F0200081C
:100100006F0200086F0200086F0200086F0200080B
:100110006F0200086F0200086F0200086F020008FB
:100120006F0200086F0200086F0200086F020008EB
:100130006F0200086F0200086F0200086F020008DB
:100140006F0200086F0200086F0200086F020008CB
:100150006F0200086F0200086F0200086F020008BB
:100160006F0200086F0200086F0200086F020008AB
:100170006F0200086F0200086F0200080000000014
:100180006F0200086F02000800F002F800F052F859
:1001900014A696E8000CB244B344DA4501D100F04D
:1001A00049F8BAE80F000FA696E83000A5EB040561
:1001B00004EB0607AAEB0704A7F101074FEA1515A0
:1001C0004FEA3414A4F10104AC4201D300F032F838
:1001D00013F0010F18BFFB1A43F0010300F001F800
:1001E000DBE718471C3800003C380000103A24BFF9
:1001F00078C878C1FAD8520724BF30C830C144BF8C
:1002000004680C6070470000704700000023002461
:1002100000250026103A28BF78C1FBD8520728BF16
:1002200030C148BF0B6070471FB503F0A8FB1FBD6E
:1002300010B510BD00F058F81146FFF7F5FF03F0B8
:1002400071F800F076F803B4FFF7F2FF03BC00F09A
:100250007DF800000948804709480047FEE7FEE7AF
:10026000FEE7FEE7FEE7FEE7FEE7FEE7FEE7FEE766
:1002700004480549054A064B704700006D2F0008E9
:10028000890100082002002020080020200400200E
:10029000200400204FF0000200B513469446964615
:1002A000203922BFA0E80C50A0E80C50B1F1200189
:1002B000BFF4F7AF090728BFA0E80C5048BF0CC037
:1002C0005DF804EB890028BF40F8042B08BF704795
:1002D00048BF20F8022B11F0804F18BF00F8012B07
:1002E0007047704770477047754600F02BF8AE4670
:1002F00005006946534620F00700854618B020B532
:10030000FFF7B6FFBDE820404FF000064FF00007B2
:100310004FF000084FF0000BAC46ACE8C009ACE869
:10032000C009ACE8C009ACE8C00921F007018D465E
:10033000704710B50446AFF300802046BDE810407A
:10034000FFF781BF004870472000002001491820B6
:10035000ABBEFEE7260002007047000070B5044601
:1003600000688268836802F0040203F00803D21870
:1003700000F0BA80C26892016ED5627E012A6BD10C
:10038000227E012A68D10168490661D40121CAF29E
:100390004031026852065BD40268520658D40268A3
:1003A00052065CBF02685FEA426251D4026852069C
:1003B0005CBF02685FEA42624AD4026852065CBFD0
:1003C00002685FEA426243D4026852065CBF026878
:1003D0005FEA42623CD4026852065CBF02685FEA90
:1003E000426235D4026852065CBF02685FEA42622C
:1003F0002ED4026852065CBF02685FEA426227D4CC
:10040000026852065CBF02685FEA426220D402685A
:1004100052065CBF02685FEA426219D40268520663
:100420005CBF02685FEA426212D4026852065CBF97
:1004300002685FEA42620BD4026852065CBF02683F
:100440005FEA426204D41B3944D002685206A0D548
:1004500040210160012105E0022903D10221082683
:1004600012E000BF826852070AD58268920707D45B
:1004700082684FF6C073C7F6FF731A40103282606D
:1004800001294FF0040610D0826812070AD582684D
:10049000920707D482684FF6C073C7F6FF731A40FD
:1004A00020328260032908BF0C2600F093FE2168E9
:1004B0008968314218D0054603E000BF80683042A9
:1004C00012D000F087FE411B20680629F6D3816810
:1004D0003142F3D0606D40F010006065A06D40F0D7
:1004E0000100A065012070BD002070BD70B582B014
:1004F00004460020019021688A68D20711D14FF686
:10050000C076C7F6FF76886806F17F0210420BD0EE
:10051000606D40F010006065A06D40F00100A065C6
:10052000012002B070BD00BF8868304040F001007B
:10053000886040F20830C5F204000068000221D44F
:1005400000F048FE21680A68D20717D1054602E08C
:100550000868C00712D18868C00704D18868304095
:1005600040F00100886000F035FE401B2168032840
:10057000EED30868C007EBD1CAE700BF002002B085
:1005800070BD00BF40F21C00C2F20000006842F6DD
:1005900063518009C0F23E51A0FB0101880900EBC4
:1005A00040000C2101EB8000019001980028C7D089
:1005B00001980138019001980028C1D001980138B4
:1005C000019001980028BBD0019801380190019852
:1005D0000028B5D001980138019001980028E7D192
:1005E000AEE70000FEE7000070470000EFF3108068
:1005F00072B600BFFEE7000090F85020012A04BF49
:100600000220704770B582B0002340F20832019397
:100610000093C5F204020368A2F54274A3422FD1ED
:100620004FF6006E4FF60055CFF6FF7ECFF6FF7502
:1006300052F80E40535923435B0721D4D1F800C030
:100640001368BCF1000F23F4604427D04B6890F886
:10065000306043EA463323431360535952F80E6027
:100660006FF0FF05555933432B43DB0726D1136841
:1006700040F61F768968B343194341EA0C011CE038
:10068000416D41F0200141650121002280F8502098
:1006900002B0BDE870400846704700BF1460515971
:1006A00052F80E306FF0FF06965919433143C907CF
:1006B00004D1116840F61F73994311600021E4E7EB
:1006C000F0B581B00022009290F85020012A03D1A9
:1006D0000221084601B0F0BD0123076880F85030C0
:1006E000BB685B0700F19A804B68052B06D8023B7C
:1006F000032B9ABFC9A555F823300623C3F3012461
:1007000007EB84040D68226B03F01F031F269E4035
:10071000B243C5F3846606FA03F31A432263BA6848
:10072000BB6802F0040203F00803D21840F0918085
:100730000A688B68C2F3406607EB86067569C2F3E8
:10074000045207249440A54303FA02F22A4372613B
:10075000D1E90435FC68042B66D13A6E3A6E0B6819
:10076000C2F3846293FAA3F6C3F3846C6FF3DF439E
:10077000B6FA86F5002B2C464FF6FF7E08BF64467E
:10078000A242C0F2070E0CD13A6E22F000423A6645
:100790000A6802EA0E03C2F3846C92FAA2F2B2FA79
:1007A00082F57A6E7A6E002BC2F384622C4608BF03
:1007B0006446A2420CD17A6E22F000427A660A6840
:1007C00002EA0E03C2F3846C92FAA2F2B2FA82F544
:1007D000BA6EBA6E002BC2F384622C4608BF644620
:1007E000A2420CD1BA6E22F00042BA660A6802EA4E
:1007F0000E03C2F3846C92FAA2F2B2FA82F5FA6E98
:10080000FA6E002BC2F3846208BF6546AA4220D16B
:10081000FA6E22F00042FA661BE000BF416D41F023
:10082000200141650121F2E0062202EA94020E68ED
:1008300007EB830305FA02F21D6E4FF20004C0F2CB
:10084000FF3406F0F846254032432A4342F0004286
:100850001A66BA680D68D20750D1CA68D7F8B06076
:100860002B466FF3DF4326EA030C4FF6FF7602F0C8
:100870001804C0F20706E64000242E40C4F27F04AC
:1008800046EA0C06A242C7F8B06037D193B195FA98
:10089000A5F2B2FA82F2013202F01E03092B02F035
:1008A0001F0310D801229A4003EB430342EA03538B
:1008B00015E000BF012202EB956202F01E030A2B35
:1008C00002F01F03EED3012200269A4003EB4303FC
:1008D000CFF6206606EB03531A4342F00073C3F3CE
:1008E000406607EB86068A687569C3F304530724DC
:1008F0009C40A5439A402A4372610D680021C8F2CA
:1009000008010D4200F0828040F2083CC5F2040C60
:10091000DCF800400021CCF252718D4204F0E07E00
:1009200008BF14F4000119D00021CCF684318D42A7
:1009300054D10021B1EB1E6F50D140F2002247F498
:100940000071C5F20402914260D1DCF8001021F080
:10095000E07141EA0E0141F0807155E040F2002261
:1009600047F40071C5F2040291424FD1DCF8001047
:1009700042F6635221F0E07141EA0E0141F40001B8
:10098000CCF8001040F21C01C2F200010968C0F26C
:100990003E528909A1FB0212910901EB41010C228F
:1009A00002EB81010091009981B300990139009116
:1009B000009959B3009901390091009931B3009918
:1009C00001390091009909B300990139009100990A
:1009D00000294FF00001E8D119E000BFACF54271E9
:1009E0008F424FF0000112D10122C8F2000295425D
:1009F00008BF14F480020AD1DCF8001021F0E07185
:100A000041EA0E0141F48001CCF8001000210022DF
:100A100080F85020084601B0F0BD00BF0C00000077
:100A20001200000018000000000100000068006CC7
:100A30007047000070B582B000210028019153D0AA
:100A4000416D39B9044600F0EBF820460021A1655C
:100A500084F850100268916889004FF6C071C5F69D
:100A6000FF7102D593680B4093609368DB002ED42E
:100A7000936801F18051194041F08051916040F23A
:100A80001C01C2F20001096842F663538909C0F2F1
:100A90003E53A1FB03139909022303EB410101918A
:100AA0000199A1B1019901390191019979B1019996
:100AB00001390191019951B10199013901910199CE
:100AC00029B101990139019101990029EAD191686F
:100AD000C9000DD4416D012641F010014165816DC1
:100AE00041F00101816504E00126304602B070BD8D
:100AF00000269368446D03F0040304F010041B19EE
:100B0000436D6FD123F48173023343659368DB0730
:100B100020D140F2083C4FF600544FF60063C5F276
:100B2000040CCFF6FF74CFF6FF735CF804E05CF8BA
:100B300003306FF0FF045CF8044043EA0E032343E4
:100B4000DB0707D14368DCF8004024F47C1423431E
:100B5000CCF80030437E446BD0E9021544EA4333BD
:100B60002B4390F820501943012D41EA054306D14B
:100B7000416A0025CFF6FE7505EB41410B43846ABF
:100B800024B1C16A04F4707529430B43D1684CF257
:100B90000705CFF6F07529401943D1609168090720
:100BA0002BD490F83030017E5B0090F8385043EA47
:100BB0008131D36844F20204A3431943D16013691D
:100BC000012D17D140F2FD7123EA010CD0E90F3558
:100BD000D0E9114143EA0C032B432343194341F06D
:100BE000010309E043F0100201264265304602B0DD
:100BF00070BD00BF23F0010313610169136B01296C
:100C000023F00F0302D1C16901390B431363426D15
:100C1000012161F301024265304602B070BD00005F
:100C200010B5A8B0044600202790CDE92500CDE9F5
:100C3000230001A820306821FFF72CFB2068002149
:100C4000C5F20401884201D028B010BD4FF48040A5
:100C500001904FF0805008211F900220049107213D
:100C60000290CDE9051007904FF0807001240890A4
:100C700001A8039400F09EFB002818BFFFF7B6FC04
:100C800041F24C00C4F20200016841F400510160DD
:100C9000016801F4005100910099016841F00401DC
:100CA0000160006823A900F00400009000980B2068
:100CB00024900020259040F60000C4F60000239404
:100CC00000F08CF928B010BD2DE9F04740F208394A
:100CD0000446C5F20409D9F80000D4F814800D4682
:100CE000B8F1080F00F01F0A02D1082712E000BF78
:100CF000BAF1090F00F28480012000FA0AF040F2F4
:100D00002121084200F07C802068C068C00740F0C4
:100D10007D80042700F05EFA21680A683A423DD0DF
:100D2000606D40F400706065C86810F4406F0FD1CA
:100D3000607E68B9086800070AD5606D20F480708D
:100D40006065606DC00403D4606D40F001006065B3
:100D5000A9F502708142084608BFA9F54270024613
:100D6000BAF1090F08BF0A46BAF1050F08BF0A46D3
:100D7000BAF1000F08BF0A46884208BF0246D06891
:100D8000B8F1080F02D1082003E000BF400401D4ED
:100D90000C2008600020BDE8F08700BF0646681CF4
:100DA0002AD065B900F016FA2168086838420FD0D9
:100DB00008683842F6D0B3E708683842B0D100F08E
:100DC00009FA801B2168A842F6D908683842F3D195
:100DD000606D40F004006065002084F8500003203E
:100DE000BDE8F087086838429AD10868384297D140
:100DF000086838427FF494AF08683842F2D08FE731
:100E0000D9F8000010F4604F3FF483AF606D40F0FC
:100E1000200060650120BDE8F087000070B5002467
:100E2000C5F20404D4F8085301688968490703D45B
:100E300090F85010012901D1022070BD012180F8E5
:100E400050100646FFF752FB20B1002086F85000F4
:100E5000012070BD3168736D304640F60176B343B2
:100E600003F5807604F58073994218BF0C46631A27
:100E7000B3FA83F35B0905F01F02DB07466500D177
:100E80001AB9466D26F480164665466D0025F604AF
:100E90004FF0000644BF866D26F0060686651C26C8
:100EA0000E6080F8505043B9092A19D8012303FA7B
:100EB00002F240F221231A4212D0CA68920104D5EC
:100EC000426D012363F30D32426588684FF6C072AC
:100ED000C7F6FF72104004308860002070BD00BF6C
:100EE000416D41F480114165E16889015CBF0020DA
:100EF00070BD416D012262F30D314165002070BD6E
:100F0000B0B5044690F85000012804BF0220B0BDDF
:100F100001252046032184F85050FFF71FFA28B11D
:100F2000002084F850002846B0BD00BF20688168CA
:100F30008268D20717D011F0020114D1816801F044
:100F40000D01012926D181684FF6C072C7F6FF72E4
:100F50001140023181600321016000F03BF92168FA
:100F60008968C90708D1204650F8541F41F2011280
:100F70009143002516E000BF054602E08068C007E7
:100F8000F1D000F027F9411B20680329F6D38168CE
:100F9000C907F3D0606D012540F010006065204660
:100FA00050F8581F41F001010160002084F8500002
:100FB0002846B0BDB0B5044600F00CF9054640F235
:100FC0001400C2F200000078611C18BF044400BF86
:100FD00000F000F9401BA042FAD3B0BD2DE9F04F5C
:100FE00083B00E68002E00F0E38000F1200241F68D
:100FF0000004009200F13847C4F6000407224FEACB
:10100000B725A04208BF0622062D38BF4FEAB722F7
:10101000002500274FF0000801920AE00E6808F151
:10102000010836FA08F207F1020705F1040500F09D
:10103000BF80012202FA08F416EA0409EED0D1F8C2
:1010400004A00AF0030CACF10106022E16D2866849
:101050000322CB68BA409643BB4033438360436866
:101060006FEA020E23EA0402CAF3001303FA08F33C
:101070004FEA480B1A4342601AE000BFBCF1030F6D
:1010800010D1C66A4FF0030CA643CAF3C00404FA99
:1010900008F42643C6620CFA07F66FEA060EBB4652
:1010A00028E000BF032202FA07F66FEA060EBB46ED
:1010B000C2688B6802EA0E0203FA0BF31A43BCF112
:1010C000020FC26016D16FF00302009C02EA5802C0
:1010D00005F01C060F2354F802C003FA06FA0B6948
:1010E0002CEA0A0CB34043EA0C03A350D1F804A045
:1010F0000AF0030C02680CFA0BF302EA0E021A4320
:101100001AF4403F026089D041F26003C4F2020346
:101110001A6840F2004E42F001021A601A68C4F2E6
:10112000010E02F001020292029A28F003024FF629
:10113000084C7244CFF6FF7C52F80C3005F00C06D8
:101140000F24B440A343019C04FA06F6334342F84B
:101150000C30DEF808204B6842EA090640F20C4CDD
:10116000DC0258BF22EA0906CEF80860C4F2010C7E
:10117000DCF800209C0242EA090658BF22EA090670
:10118000CCF80060DEF804209C0342EA090658BF50
:1011900022EA0906CEF80460DEF80020DB0342EA0A
:1011A000090658BF22EA0906CEF8006036E700BFFC
:1011B00003B000F000B830BCBDE8C08F0069084043
:1011C00018BF0120704700001823002A08BF2823F9
:1011D000C150704740F21820C2F20000006870470A
:1011E00040F2140040F21821C2F20000C2F20001E5
:1011F00000780A68104408607047000080B503203A
:1012000000F07AF80F2000F009F800281CBF012038
:1012100080BD00F02BF8002080BD0000B0B540F28A
:101220001405C2F200052978F1B1044640F21C0011
:10123000C2F200004FF47A720068B2FBF1F1B0FB29
:10124000F1F000F093FF01460F2C4FF001000AD897
:10125000002918BFB0BD4FF0FF302146002200F03A
:101260001FF800206C60B0BD0120B0BD82B041F21B
:101270005800C4F20200816841F001018160816878
:1012800001F0010101910199016841F08051016073
:10129000006800F080500090009802B07047000095
:1012A00010B54EF60C5CCEF2000CDCF80030C3F347
:1012B000022E8EF00704042C28BF0424BEF1030381
:1012C0004FF0FF3E0EFA04F438BF0023A1439940CB
:1012D0000EFA03F39A43114300F00F0200F160434A
:1012E0000901043A03F564436244002848BF02F14F
:1012F0000C03197010BD00004EF60C51CEF2000127
:101300000A684FF6FF031A4060F30A2242F0806039
:1013100040F0FD700860704747F20001C4F2000120
:101320000A68B0F5007F02F4C06031D1B0F5007FEB
:101330002CD00868012262F34A20086040F21C00A9
:10134000C2F200000068322250434DF68362C4F2BC
:101350001B32A0FB0202900C4A69520511D5421CB7
:101360000FD04A6952050CD558B14A69520508D5C3
:10137000012806D04A69520503D50228A0F10400CD
:10138000EAD14869400544BF0320704700207047F8
:10139000B0F5806FFAD00868022262F34A20086034
:1013A0000020704747F20000C4F20000006800F41B
:1013B000C06070472DE9F04782B00446407841F2A2
:1013C00088070007C4F2020725D5606E4FEAB051C6
:1013D000032927D8DFE801F0020A141A201D002192
:1013E00001F080FC0646B8B907E000BF04F1200018
:1013F000002101F01FFD064670B9606E06E000BFD7
:1014000057F87C1C41F4803147F87C1C396821F482
:1014100040010843386000266078C00606D4B24612
:101420002AE000BF01266078C006F8D5A06E4FEA1A
:101430003060032800F29681B246DFE810F0050024
:101440000B008501110000BF201D002101F04AFCA6
:1014500005E000BF04F12000002101F0EBFC824612
:10146000BAF1000FD04608D13868A16E20F0407064
:1014700008434FF0000A3860B046A078800705D4D2
:10148000C2462168C80751D071E000BF57F8300C40
:101490005FEAC0090BD457F8300C40F0805047F891
:1014A000300C57F8300C00F080500190019847F252
:1014B0000005C4F20005286840F480702860FFF73A
:1014C00089FE06462868C00508D4FFF783FE801B06
:1014D0000228F7D94FF0030A22E000BFBAF1000F4B
:1014E0001ED1B86810F4407012D0D4F8841088422D
:1014F0000BD0B868B96820F4407041F48031B9600D
:10150000B96821F48031B960B860C00740F030811B
:10151000B868D4F8841020F440700843C246B8601C
:10152000B9F1000F1AD52168C80720D1880726D441
:1015300048072CD4080732D4C80638D488063ED4CD
:10154000880544D448054AD4480650D4080656D4E1
:10155000C8055CD4880462D473E000BF57F8300C2F
:1015600020F0805047F8300C2168C807DED038687A
:10157000A26B20F00300104338608807D8D5386884
:10158000E26B20F00C00104338604807D2D5386871
:10159000226C20F03000104338600807CCD5386842
:1015A000626C20F0C00010433860C806C6D53868A9
:1015B000A26C20F44070104338608806C0D53868AB
:1015C000E26C20F44060104338608805BAD5386872
:1015D000E26D20F44020104338604805B4D53868E7
:1015E000226E20F44010104338604806AED53868AB
:1015F000226D20F44050104338600806A8D53868A2
:10160000626D20F4404010433860C805A2D53868A8
:10161000A26D20F4403010433860880411D53A6838
:10162000E06E22F040620243B0F1806F3A601DD05C
:10163000B0F1006F05D157F87C0C40F4801047F8EA
:101640007C0C080326D53A68206F22F040620243E2
:10165000B0F1806F3A6015D0B0F1006F1AD157F831
:101660007C0C40F4801047F87C0C13E0201D012115
:1016700001F038FB2168002818BF82460803E2D435
:1016800008E000BF201D012101F02CFB216800288B
:1016900018BF8246480311D53A68606F22F0406255
:1016A0000243B0F1806F3A601CD0B0F1006F05D1F9
:1016B00057F87C0C40F4801047F87C0C480425D582
:1016C0003968A06F21F040510143B0F1005F3960EB
:1016D00014D0B0F1805F19D1201D022101F002FB6E
:1016E00011E000BF201D012101F0FCFA2168002853
:1016F00018BF82464804E3D408E000BF04F120008C
:10170000022101F097FB002818BF824620680104DF
:1017100006D4C0030CD4504602B0BDE8F08700BF29
:101720003968E26F21F0804111433960C003F2D57E
:101730003868D4F8801020F00040084338605046E4
:1017400002B0BDE8F08700BF57F87C0CB24640F409
:10175000803047F87C0CBAF1000FD0467FF48DAE94
:1017600082E600BF4FF0010A4FF0010885E600BF96
:10177000FFF730FD064641F288354FF0030A00BFFF
:10178000B86880073FF5C4AEFFF724FD801BA84270
:10179000F6D9C5E62DE9F04381B0002800F08C8031
:1017A00042F20009C4F202090446D9F8000000F030
:1017B000070088420CD2D9F8000020F00700084347
:1017C000C9F80000D9F8000000F00700884273D182
:1017D000206841F2080610F00202C4F202060AD0A4
:1017E000A368376807F0F007BB4204D9376827F0D1
:1017F000F0073B433360C30734D0606856F8082CC9
:1018000050B1022804D003280AD192010AD453E02F
:10181000920307D450E000BF920703D44CE000BF0E
:10182000520549D58846316821F0030108433060EC
:10183000FFF7D0FC054641F2883700BF3068616889
:1018400000F00C00B0EB810F08D0FFF7C3FC401B89
:10185000B842F3D9032001B0BDE8F08320684146C7
:1018600000F0020252B1A268336803F0F0039A421A
:1018700004D2336823F0F0031A433260D9F8002011
:1018800002F007028A420CD9D9F8002022F00702A0
:101890000A43C9F80020D9F8002002F007028A4262
:1018A0000AD141070CD4000712D43068716810F0D7
:1018B0000C0019D11EE000BF012001B0BDE8F0838B
:1018C0003168E26821F4E061114331600007ECD532
:1018D0003068216920F4605040EAC100306030680F
:1018E000716810F00C0005D00C282BD101F0030119
:1018F000012927D156F8081C042211F008016FF0C5
:10190000070108BF8C21715808BF0822D14043F657
:10191000D01201F00F01C0F6000252F82110002889
:101920000A4618BF00220C2838D1706800F0030066
:10193000022811D0032804BF41F20021C0F27A012D
:101940000EE000BF04281FD0082823D141F2002256
:10195000C0F27A0222E000BF42F20041C0F2F4017C
:1019600070687268C0F30210C2F3062251437268B5
:101970000130B1FBF0F0C2F34161022202EB410100
:10198000B0FBF1F20AE000BF42F20042C0F2F40202
:1019900004E000BF002200210C28C6D0306843F6C6
:1019A000C011C0F30310C0F60001085C00F01F0076
:1019B00022FA00F140F21800C2F2000040F21C02CC
:1019C0000068C2F20002116001B0BDE8F043FFF709
:1019D00025BC0000002804BF012070472DE9F0431A
:1019E00083B041F200060446C4F20206B068F16812
:1019F000227800F00C09D00601F003081ED42078EC
:101A0000C00700F08880B9F1080F00F07D80B9F1BF
:101A10000C0F08BFB8F1030F76D061683068B1F5DC
:101A2000803F07D0B1F5A02F40F0208240F4802005
:101A30003060306840F48030306021E2B9F1000F4E
:101A40001CD0B9F10C0F08BFB8F1010F16D0A16975
:101A50003068002900F0B88140F001003060FFF7E5
:101A6000B9FB05463068800700F1C081FFF7B2FB83
:101A7000401B02284FF00300F4D92EE330688007A2
:101A800003D5A069002800F0DD82256A30680007D0
:101A900000F12A81D6F89400000900F0F000854298
:101AA00000F228813068B9F1000F40F00800306082
:101AB000306820F0F00040EA050030607068E169AD
:101AC00020F47F4040EA0120706040F08682B06DD3
:101AD000C00000F12382B06D40F08050B065B06D61
:101AE00000F0805002900298FFF75CFCB16D21F08D
:101AF0008051B165B0F5007F00F01682802D40F274
:101B0000538203205BE200BF3068800303D5606826
:101B1000002800F09782207880072DD5B9F1040FB6
:101B20001CD0B9F10C0F08BFB8F1020F16D0E16854
:101B30003068002900F0B48140F480703060FFF715
:101B400049FB0546306840050FD4FFF743FB401BB7
:101B500002284FF00300F5D9BFE200BF306840050E
:101B600003D5E068002800F06D827068216920F0DC
:101B7000F85040EA01607060207800075ED4207859
:101B8000400775D4A06A002800F0EC82022840F0DB
:101B9000E380F068E16A00F003028A4240F0F480DA
:101BA000226B6FF00F0300F0700103EB0212914201
:101BB00040F0EA80616B00F4FE42B2EB012F40F08E
:101BC000E380A16B00F40032073918BF01218A427B
:101BD00040F0DA80E26B0023CFF6E07303EA0252B2
:101BE00000F4C001A2F50012914240F0CD80216CBA
:101BF0004FF07E4202EA016100F0C06001F17E41D7
:101C0000884240F0C1803068800100F1AB823068CA
:101C100040F080703060F06840F08070F060FFF756
:101C2000D9FA04463068800100F19C82FFF7D2FAAD
:101C3000001B02284FF00300F4D94EE26169D6F888
:101C40009400002972D040F00100C6F89400FFF71C
:101C5000C1FA0546D6F89400800790D4FFF7BAFA87
:101C6000401B0228F6D9032003B0BDE8F08300BF73
:101C7000B06D5FEAC00808D4B06D40F08050B06528
:101C8000B06D00F080500090009847F20007C4F259
:101C900000073868C00513D4386840F48070386095
:101CA000FFF798FA054600BF3868C00508D4FFF76B
:101CB00091FA401B02284FF00300F5D90DE200BF56
:101CC000A168D6F89000012908D0052940F0AE801F
:101CD00040F00400C6F89000D6F8900040F00100F3
:101CE000C6F89000AFE000BF306800F0F000854219
:101CF0007FF6D8AEB06DC00000F18A80B06D40F0C4
:101D00008050B065B06D00F0805001900198FFF7F1
:101D100049FBB16D21F08051B165B0F5007F00F055
:101D20007D80802D40F2CE800320D6E020F001009F
:101D3000C6F89400FFF74EFA054600BFD6F89400A7
:101D400080077FF51CAFFFF745FA401B02284FF0D4
:101D50000300F3D9C1E100BFB9F10C0F00F07281AB
:101D6000306820F080703060FFF734FA044600BF1E
:101D70003068800140F1E080FFF72CFA001B022858
:101D80004FF00300F4D9A8E1B9F10C0F00F05A812B
:101D90003068400100F156813068C00000F1528186
:101DA000306820F080703060FFF714FA0546306824
:101DB000800140F19581FFF70DFA401B02284FF09A
:101DC0000300F4D989E100BF20F001003060FFF783
:101DD00001FA0546306880077FF511AEFFF7FAF982
:101DE000401B02284FF00300F4D976E1306840F040
:101DF000080030603068D4E9071220F0F00010438A
:101E00003060706820F47F4040EA01207060F6E5A1
:101E1000FFF7C8FAB0F5007F7FF483AF812D5BD365
:101E20000120A02D88BF022057E000BF20F0010054
:101E3000C6F89000D6F89000002920F00400C6F8FB
:101E4000900000F08580FFF7C5F9054641F288371C
:101E5000D6F89000800700F18D80FFF7BBF9401B9A
:101E6000B842F5D9032003B0BDE8F08320F48030F8
:101E700030603068002920F48020306000F08480D9
:101E8000FFF7A8F9054600BF306880033FF543AE71
:101E9000FFF7A0F9401B64284FF00300F4D91CE1C0
:101EA00020F480703060FFF795F9054630684005F2
:101EB0007FF562AEFFF78EF9401B02284FF003005A
:101EC000F4D90AE1A5F17000B0FA80F04009802D44
:101ED00008BF022001E000BF002042F20001C4F26E
:101EE00002010A6822F0070202440A60096801F050
:101EF0000701814240F0A680306840F00800306061
:101F00003068D4E9071220F0F000104330607068A8
:101F100020F47F4040EA012070605EE0FFF742FA63
:101F2000B0F5007F7FF4EAAD812D47D30120A02DCD
:101F300088BF022043E000BFF0684FF6FC71CFF687
:101F4000EE610840F060002003B0BDE8F08300BF00
:101F5000FFF740F9054641F2883700BFD6F89000F8
:101F6000800707D5FFF736F9401BB8424FF0030052
:101F7000F4D9B2E0B8F1000F3FF504AEB06D20F037
:101F80008050B065FEE500BFFFF724F9054600BFAD
:101F9000306880037FF5BFADFFF71CF9401B642854
:101FA0004FF00300F4D998E0A5F17000B0FA80F08A
:101FB0004009802D08BF022001E000BF002042F24E
:101FC0000001C4F202010A6822F0070202440A601A
:101FD000096801F00701814234D1B068F16810F05E
:101FE0000C0005D00C2831D101F0030101292DD1BD
:101FF000314651F8942B12F00802324608BF0A46C7
:102000004FF00401126808BF082122FA01F143F6DB
:10201000D01201F00F01C0F6000252F82110002882
:102020000A4618BF00220C283CD1F06800F00300DB
:10203000022815D0032804BF41F20021C0F27A0122
:1020400012E000BF012003B0BDE8F08304281FD0D8
:10205000082823D141F20022C0F27A0222E000BF18
:1020600042F20041C0F2F401F068F268C0F30210DD
:10207000C2F306225143F2680130B1FBF0F0C2F323
:102080004161022202EB4101B0FBF1F20AE000BF24
:1020900042F20042C0F2F40204E000BF002200213C
:1020A0000C28C2D0B06843F6C011C0F30310C0F6CC
:1020B0000001085C00F01F0022FA00F140F2180055
:1020C000C2F2000040F21C020068C2F2000211607D
:1020D000FFF7A4F800283FF492AC03B0BDE8F0830A
:1020E000F06848F28C01CFF69D1104F12C0700EA4C
:1020F000010C8ECFD4E90F546FF00F0040F2000EA8
:1021000000EB0210CFF6E07E41EA0C010EEA055525
:102110004FF07E420843A5F5001502EA046240EA4A
:10212000032002F17E420EF5F014284304EA4737FB
:1021300010433843F060306840F080703060F068E1
:1021400040F08070F060FFF745F804463068800189
:1021500008D4FFF73FF8001B02284FF00300F5D921
:10216000BBE700BF002003B0BDE8F083411E0020A4
:10217000B0EB116F1CBF012070474EF21002CEF27F
:10218000000251604EF62351CEF20001F0230B7095
:10219000072190601160704790F83C20012A04BF2D
:1021A0000220704710B5D1E90232D1E900CE22F405
:1021B0007C5223F470531A4348F2FF73CFF6F07346
:1021C00003EA0E0342EA030E0A692CF477234EEA6F
:1021D000030C22F476224B6942EA0C021A438B6A02
:1021E00022F4742223F4702342EA030CD1F818E09D
:1021F000046843F20043C4F201039C424CEA0E43DC
:1022000005D042F60042C4F20102944210D123F0FC
:102210007C7ED1E9073C496A0022CFF6F04202EA0F
:10222000015141EA0E0123F00072114341EA0C030F
:102230000021636480F83C10002010BD90F83C2021
:10224000012A4FF002025AD010B580F83D200268F2
:1022500043F2004C5368D2F808E0C4F2010C624526
:1022600005D042F60044C4F20104A24203D14C68F6
:1022700023F4700323430C6823F07003234340F6D8
:10228000FF34C4F20004A242536013DD43F2FF3373
:10229000C4F201039A421DDC40F60043C4F200037D
:1022A0009A421FD042F60043C4F201039A4219D069
:1022B0001DE000BFB2F1804F14D040F20043C4F2E1
:1022C00000039A420ED040F60003C4F200039A4283
:1022D00008D00CE044F20003C4F201039A4201D09A
:1022E000624504D189682EF0800319439160012171
:1022F000002280F83D1080F83C20BDE810401046D8
:1023000070470000C1B1042908D0082914BF472232
:102310004622825C012A05D016E000BF4522825C7D
:10232000012A11D10222082910D0042914BF80F8F3
:10233000472080F845200BE090F84420012A03D183
:10234000022280F8442003E00120704780F84620F4
:10235000026801F00F000421136A01FA00F023EA79
:1023600000011162116A08431062506C40F6FF319F
:10237000C4F2000140F400408A42506412DD43F28E
:10238000FF30C4F2010082421CDC40F60040C4F27F
:102390000000824222D042F60040C4F20100824294
:1023A0001CD028E0B2F1804F18D040F20040C4F2B7
:1023B0000000824212D040F60000C4F200008242C7
:1023C0000CD018E044F20000C4F20100824205D0B3
:1023D00043F20040C4F2010082420CD19068072110
:1023E000C0F20101014006294FF00000ADD0B1F567
:1023F000803F08BF7047106840F001001060002067
:1024000070470000002804BF0120704710B5044643
:1024100090F83D0028B9002084F83C00204600F0E8
:1024200023F8022084F83D002068211D00F0A8FD5B
:10243000012084F8480084F83E0084F83F0084F8C6
:10244000400084F8410084F8420084F8430084F896
:10245000440084F8450084F8460084F8470084F876
:102460003D00002010BD000082B0006843F2004132
:10247000C4F20101884215D042F60041C4F20101C4
:1024800088421CD141F26000C4F20200016841F4AC
:1024900000610160006800F400600190019802B0E2
:1024A000704700BF41F26000C4F20200016841F4CD
:1024B00000510160006800F400500090009802B0E4
:1024C0007047000090F83C20012A4FF0020271D0C2
:1024D00010B580F83D2004688822A368CFF6FE720C
:1024E0001A40A2600B684F2B34DC1F2B4EDD202BD3
:1024F00050D0302B4ED0402B40F0C880D1F804C0D3
:10250000D1F80CE0236A216A21F00102A4F1804194
:10251000A1F596314FEAB1210729226209D801229B
:1025200002FA01F111F0E50F1EBF216A21F004014A
:102530002162A16923F00A0221F0F00141EA0E11A3
:1025400042EA0C02A1612262A16841F0470121F038
:10255000300125E06F2B2FDDB3F5005F00F08680A2
:10256000B3F5805F1DD0702B40F09080D1E901C39E
:10257000C968A26843EA0C0322F47F4243EA0121BE
:102580001143A160A16841F0770109E013B1102B5C
:1025900040F07C80A16821F07001194341F00701EF
:1025A000A1600022012180F83D10002180F83C103C
:1025B000BDE8104010467047502B2BD0602B65D1E2
:1025C000D1F804C0D1F80CE0236A226A43F200413A
:1025D000C4F201018C4222F01001216205D042F6C2
:1025E0000041C4F201018C4203D1216A21F0400173
:1025F0002162A16923F0A00221F4704141EA0E3169
:1026000042EA0C12A1612262A16841F0670121F047
:102610001001C5E7D1F804C0D1F80CE0236A216AA3
:1026200021F00102A4F18041A1F596314FEAB121D8
:102630000729226209D8012202FA01F111F0E50FFF
:102640001EBF216A21F004012162A16923F00A0260
:1026500021F0F00141EA0E1142EA0C02A16122626E
:10266000A16841F0570121F0200199E7D1E901C3A8
:10267000C968A26843EA0C0322F47F4243EA0121BD
:102680001143A160A16841F4804189E7012289E7F3
:1026900080B586B0006843F20041C4F2010188426F
:1026A0004FF000010591CDE90311CDE9011117D0DB
:1026B00042F60041C4F2010188422CD141F24C00A3
:1026C000C4F20200016841F00101016000684FF4AA
:1026D000407100F001000090009801200FE000BF61
:1026E00041F24C00C4F20200016841F001010160B6
:1026F0000068202100F00100009000980320019163
:10270000022102910021CDE90311059001A94FF0AA
:102710009040FEF763FC06B080BD000090F83C30AE
:10272000012B04BF022070474FEAB202052A00F2D3
:10273000C1812DE9F041DFE812F00700210191008D
:10274000E5005500750100BF03681D6A1A6AA3F110
:10275000804622F001021A621A46D3F804C052F8E9
:1027600018EF8F68A6F59636D1F8008025F002059F
:102770004FEAB626072E45EA07050CD80127B740D1
:1027800017F0E50F07D01F6A25F0080527F00407AA
:102790001F62CF683D43072E0CD8012707FA06F6C3
:1027A00016F0E50F1FBFD1E905672CF440742643EE
:1027B00046EA070C4FF68C74CFF6FE740EEA040757
:1027C00047EA0807C3F804C09F614F6809695F635F
:1027D0001D629F6947F008079F619F6927F0040702
:1027E0009F615CE10368D3F820C01A6AA3F18047B7
:1027F00022F480321A621A46A7F596375D6852F8BD
:10280000548FD1F800E08E684FEAB727072F09D818
:102810000124BC4014F0E50F1EBF4C6925F480353F
:1028200045EA04252CF4003747EA06474FF68C7634
:10283000CFF6FE76033606EA080646EA0E065D6027
:102840005E654E6809699E651F625F6D47F0080707
:102850005F655F6D27F004075F6520E1036843F261
:1028600000461D6A1A6AC4F2010622F480721A62D6
:102870001A46D3F804C052F81C8FB3428E68D1F8C0
:1028800000E025F4007545EA062505D042F600462D
:10289000C4F20106B34208D11E6A25F4006526F48D
:1028A00080661E62CE6845EA0625A3F18046A6F53D
:1028B00096364FEAB626072E0CD8012707FA06F6F9
:1028C00016F0E50F1FBFD1E905672CF440543743DC
:1028D00044EA071C4FF68C74CFF6FE7404EA080431
:1028E00044EA0E07C3F804C0DF614F680969DF637B
:1028F0001D62DF6947F00807DF61DF6927F0040721
:10290000DF61CCE00368D3F820C01A6AA3F18047E6
:1029100022F480521A621A46A7F596375C6852F87C
:102920001C8FD1F800E08E684FEAB727072F09D82F
:102930000125BD4015F0E50F1EBF4D6924F480440C
:1029400044EA85142CF4005747EA063748F6FF4658
:10295000CFF6FF6606EA080646EA0E265C60DE61F0
:102960004E6809691E641F62DF6947F40067DF6112
:10297000DF6927F48067DF6190E000BF036843F2FE
:1029800000461D6A1A6AC4F2010622F010021A6299
:102990001A46D3F804C052F8188FB3428E68D1F8A3
:1029A00000E025F0200545EA061505D042F6004670
:1029B000C4F20106B34208D11E6A25F0800526F054
:1029C00040061E62CE6845EA0615A3F18046A6F5CC
:1029D00096364FEAB626072E0CD8012707FA06F6D8
:1029E00016F0E50F1FBFD1E905672CF440643743AB
:1029F00044EA870C48F6FF44CFF6FF6404EA080473
:102A000044EA0E27C3F804C09F614F6809699F63B9
:102A10001D629F6947F400679F619F6927F4806783
:102A20009F613BE00368D3F820C01A6AA3F1804796
:102A300022F480121A621A46A7F596375D6852F89A
:102A4000548FD1F800E08E684FEAB727072F09D8D6
:102A50000124BC4014F0E50F1EBF4C6925F480250D
:102A600045EA84252CF4001747EA065748F6FF4646
:102A7000CFF6FF6606F5407606EA080646EA0E2619
:102A80005D605E654E680969DE651F625F6D47F4D3
:102A900000675F655F6D27F480675F6509021368F3
:102AA000194311600021BDE8F041002280F83C206C
:102AB000084670470121002280F83C2008467047F4
:102AC000002804BF0120704710B5044690F83D006F
:102AD00028B9002084F83C00204600F023F80220AA
:102AE00084F83D002068211D00F04AFA012084F896
:102AF000480084F83E0084F83F0084F8400084F8E1
:102B0000410084F8420084F8430084F8440084F8CB
:102B1000450084F8460084F8470084F83D00002012
:102B200010BD00007047000080B5D9B10B1F4FEAFF
:102B3000B30E43224FF03F0CBEF1040F38BF0CEB35
:102B4000B302825C012A1CBF012080BDBEF1030FCD
:102B50001ED8DFE80EF00319111500BF022280F81D
:102B60003F2018E090F83E20012A1CBF012080BDC4
:102B7000022280F83E200EE0022280F841200AE086
:102B8000022280F8422006E0022280F8402002E083
:102B9000022280F84320026801F01F010120136A1D
:102BA00000FA01F18B431362136A0B43A2F18041D7
:102BB000A1F596314FEAB121062913624AD888401F
:102BC00010F0650F46D0506C40F6FF31C4F20001A2
:102BD00040F400408A4250640EDD43F2FF30C4F2FC
:102BE0000100824216DC40F60040C4F2000082423E
:102BF0001CD042F6004015E0B2F1804F16D040F2F2
:102C00000040C4F20000824210D040F60000C4F23E
:102C1000000009E044F20000C4F20100824205D045
:102C200043F20040C4F2010082420CD190680721B7
:102C3000C0F20101014006294FF0000008D0B1F5B3
:102C4000803F08BF80BD106840F001001060002088
:102C500080BD00BF42F6FF30C4F2010082420DDCAD
:102C600040F2FF70C4F20000824215DCB2F1804FE6
:102C7000DCD040F20040C4F20000D5E743F6FF701C
:102C8000C4F20100824213DC42F60040C4F20100AB
:102C90008242C5D1CAE700BF40F60000C4F200007E
:102CA0008242C3D040F60040C4F20000BCE700BF3F
:102CB00044F20000C4F201008242B7D044F60000A2
:102CC000C4F20100824202BF506C40F400405064E4
:102CD000B9E70000FEE70000FEE70000FEE70000A5
:102CE00070470000F0B581B041F20005C4F2020562
:102CF000EA68920714D0EA68036802F003029A4275
:102D00004FF0010208D13BB1EA684368C2F30212F6
:102D100001329A422AD00122104601B0F0BD00BF14
:102D20000268032A10D0022A06D0012A07D12B6894
:102D30009B0710D403E000BF2B685B050BD4012276
:102D4000104601B0F0BD00BF2B689B035CBF2B6831
:102D50005FEA4333F3D5EB6847686FF00F0623F063
:102D6000730306EB07173B431A43EA6006462868DD
:102D70000F4620F080602860FEF72CFA044600BF62
:102D80002868000108D5FEF725FA001B0228F7D9AC
:102D90000322104601B0F0BD2969B0683246012F08
:102DA0004FEA00200CD0DFB948F2FF03CFF6FD73E5
:102DB0001940D2680023CFF6FE7303EA42321BE0CB
:102DC00048F2FF03CFF6FF1303F1B4631940126911
:102DD0000023CFF6E07303EA0252A2F500120BE0E3
:102DE00048F2FF03CFF6FF13526919404FF07E43BC
:102DF00003EA026202F17E42084310432861286818
:102E000040F080602860FEF7E5F90446286800017C
:102E100008D4FEF7DFF9001B0228F7D90322104679
:102E200001B0F0BDB069296900220843286110464D
:102E300001B0F0BDF0B581B041F20005C4F2020569
:102E4000EA68920714D0EA68036802F003029A4223
:102E50004FF0010208D13BB1EA684368C2F30212A5
:102E600001329A422AD00122104601B0F0BD00BFC3
:102E70000268032A10D0022A06D0012A07D12B6843
:102E80009B0710D403E000BF2B685B050BD4012225
:102E9000104601B0F0BD00BF2B689B035CBF2B68E0
:102EA0005FEA4333F3D5EB6847686FF00F0623F012
:102EB000730306EB07173B431A43EA60064628688C
:102EC0000F4620F080502860FEF784F9044600BFCA
:102ED0002868800008D5FEF77DF9001B0228F7D985
:102EE0000322104601B0F0BD6969B06832464FEA6E
:102EF00000206FB148F2FF03CFF6FF1312691940AB
:102F00004FF07E4303EA026202F17E420BE000BF13
:102F100048F2FF03CFF6FD731940D2680023CFF6C5
:102F2000FE7303EA4232084310436861286840F0A8
:102F300080502860FEF74EF9044600BF28688000E4
:102F400008D4FEF747F9001B0228F7D903221046E0
:102F500001B0F0BD706969690022084368611046DC
:102F600001B0F0BD70470000FEF73AB94EF6885048
:102F7000CEF20000016841F470010160704700006A
:102F800040F6FF32D0F800C0C4F20002904229DCC3
:102F9000B0F1804F38D040F20042C4F200029042BB
:102FA00032D040F60002C4F2000290422CD042F629
:102FB000FF32C4F20102904231DD43F6FF72C4F2E7
:102FC0000102904246DD44F20002C4F20102904246
:102FD0004CD044F60002C4F20102904246D044F2C2
:102FE00000423FE040F60042C4F2000290420BD0A3
:102FF00043F20042C4F20102904205D042F6004280
:10300000C4F201029042D2D14A682CF0700342EA25
:10301000030C42F6FF32C4F201029042CDDC40F2D2
:10302000FF72C4F20002904208DCB0F1804F1DD064
:1030300040F20042C4F2000216E000BF40F6000277
:10304000C4F20002904211D040F60042C4F20002E5
:103050000AE000BF42F60042C4F20102904205D0ED
:1030600043F20042C4F20102904204D1CA682CF437
:10307000407342EA030C80B58A680B68D1F814E00B
:10308000C262A0F18042A2F596324FEAB222072A2C
:10309000836207D8012303FA02F212F0E50F1CBF86
:1030A0000969016302682CF0800142F0040241EAE0
:1030B0000E01026001224261016080BDFEE7000056
:1030C00010B52DED028B04460068FDF7A7FE2068C1
:1030D0004FF47A71FDF7F8FD2068FDF7A7FC00EECC
:1030E000100A2068B8EE408AFDF70AFF0A20FDF7B3
:1030F00061FF9FED080A9FED081A28EE000A80EE96
:10310000010AB0EE081A20EE010A84ED030ABDECB4
:10311000028B10BD3333534000F07F4510B5044699
:1031200001600020E060FEF755F8A06010BD0000CF
:1031300010B504460068A188FEF740F8217BA07115
:10314000884203D1607B012806D010BD2073FEF7B2
:1031500041F8A06001206073FEF73CF8A168401AB6
:10316000152838BF10BD207B0221E071617328B1A2
:1031700000F02AF80020607310BD00BFBDE81040C9
:1031800000F006B801600121828081817047000053
:1031900040F28000C2F20000027890F86010013224
:1031A000022902700CD0012906D000290CBF48303A
:1031B000704700F043BB00BF483000F05BBB00BF6E
:1031C000483000F071BB000070470000B0B50D46FC
:1031D0000446FDF7FFFFE168401AA84238BFB0BDC2
:1031E000207AB0FA80F041092046217200F004F8FC
:1031F000FDF7F0FFE060B0BD10B50129017217D0F6
:10320000002918BF10BDD0E9002104461046FFF781
:1032100079F8D4E9000200684FEAB202C16A042AD0
:103220001ED843F69813C0F6000353F8222018E086
:10323000D0E9002104461046FFF764F8D4E9000104
:1032400000684FEAB101C26A042917D843F6981200
:10325000C0F6000252F821100022425010BD00BFFB
:103260005C223223594348F21F533231C5F2EB132B
:10327000A1FB03135909815010BD00BF5C2100223E
:10328000425010BD10B504460120C4E9001220725E
:10329000FDF7A0FFE06010BD826881891046002222
:1032A000FDF792BF8268818910460122FDF78CBF2D
:1032B0000429817488BF704770B50EA35C5C0FA3AE
:1032C0000AA25D5C0368525C818906461846FDF7D8
:1032D0007BFF7068F1892246FDF776FFB068318A7E
:1032E0002A46BDE87040FDF76FBF00BF0100000136
:1032F00000000000000100010000000000000100CB
:10330000000000000B6803601388D1F804C08381BB
:103310005388C0F804C0C3818968928881600282A2
:1033200070470000A4B0FDF769FF05A80430242110
:10333000FCF7B0FF4FF40070FDF7EEFF20B1EFF3A4
:10334000108072B6FEE700BF4FF480710891102123
:103350000991012111910A21022012910721059062
:10336000CDE90F00CDE91310159005A8FEF732FB4B
:1033700020B1EFF3108072B6FEE700BF0F20169069
:1033800003201790002716A80421CDE918771A9773
:10339000FEF700FA20B1EFF3108072B6FEE700BF2F
:1033A00041F24C000997CDE90777CDE90577C4F2E2
:1033B0000200016840F6000A41F004010160016862
:1033C000C4F6000A01F00401169116990168AAF5E5
:1033D000806541F001010160016842F6004801F09A
:1033E0000101169116990168002241F00201016065
:1033F0000068072100F00200169016982846C4F2D3
:1034000001080726FDF7E0FE50464FF44071002208
:103410004FF4407BFDF7D8FE4FF090404FF48061B1
:1034200000224FF48069FDF7CFFE059605AE01241A
:1034300028463146CDE906470897FDF7CFFD5046AF
:103440003146CDE905B4CDE90777FDF7C7FD4FF06B
:1034500090403146CDE90594CDE90777FDF7BEFDF3
:103460004FF4C050CDE905074FF090403146079723
:10347000FDF7B4FD05A82C212397CDE921771C97F2
:10348000CDE91A77CDE91877CDE91677FCF702FF79
:1034900040F28010C2F200004F2140F2E732C0E952
:1034A0000081C0E90272C0E904778761FEF7AAFFD4
:1034B00020B1EFF3108072B6FEE700BF4FF48050EA
:1034C000209040F28010C2F2000020A9FEF7FAFF1F
:1034D00020B1EFF3108072B6FEE700BF40F280101B
:1034E000C2F20000FFF7ECFA20B1EFF3108072B6E1
:1034F000FEE700BF40F280100025C2F200001DA9C7
:10350000CDE91D551F95FEF799FE28B1EFF3108008
:1035100072B600BFFEE700BF6020CDE9160540F29D
:103520008010C2F2000016A90022CDE91855CDE99D
:103530001A551C95FFF7F2F820B1EFF3108072B620
:10354000FEE700BF40F28010C2F2000016A904227C
:10355000FFF7E4F820B1EFF3108072B6FEE700BF8A
:1035600000254FF40050CDE90A054FF00070CDE979
:103570000D0540F28010C2F2000005A90995CDE9C1
:103580000755CDE905550C950F95FEF705FE28B1B9
:10359000EFF3108072B600BFFEE700BF40F280106C
:1035A000C2F20000FFF774F840F21C100021C2F2D2
:1035B0000000C5F204010422C0E900150121CDE993
:1035C0001755C0E90255C0E904520583C16180F86E
:1035D0002050C0E90A5580F83050456380F83850D3
:1035E000FDF728FA20B1EFF3108072B6FEE700BFB6
:1035F00040F21C100025C2F2000016A91695FCF737
:10360000FBFF18B1EFF3108072B6FEE70220C0F2A4
:10361000304005900620CDE906057F200890042063
:10362000CDE9090540F21C10C2F2000005A9FDF722
:1036300047F818B1EFF3108072B6FEE7002405A832
:103640002C212394CDE921441C94CDE91A44CDE9E1
:103650001844CDE91644FCF71DFE40F2CC1008F5E5
:103660000061C2F2000040F2F3134F2280E816001E
:10367000C0E90334C0E90544FEF7C4FE20B1EFF30E
:10368000108072B6FEE700BF4FF48050209040F2E9
:10369000CC10C2F2000020A9FEF714FF20B1EFF316
:1036A000108072B6FEE700BF40F2CC10C2F20000FC
:1036B000FFF706FA20B1EFF3108072B6FEE700BF05
:1036C00040F2CC100025C2F200001DA9CDE91D5525
:1036D0001F95FEF7B3FD18B1EFF3108072B6FEE749
:1036E0006020CDE9160540F2CC10C2F2000016A908
:1036F0000022CDE91855CDE91A551C95FFF70EF8B3
:1037000020B1EFF3108072B6FEE700BF00204FF447
:103710000051CDE90A104FF000710990CDE9070082
:10372000CDE905000C90CDE90D100F9040F2CC10C2
:10373000C2F2000005A9FEF72FFD18B1EFF31080CB
:1037400072B6FEE740F2CC17C2F200073846FEF729
:103750009FFF40F2800840F20002C2F20008C2F26D
:10376000000208F1340002F108010490FFF7CAFDDD
:1037700008F1040528464FF090414FF40062FFF72E
:1037800001FD08F11409484639460022FFF77AFD89
:1037900008F1240740F21C11C2F200013846FFF77D
:1037A000BDFC40F2E40B40F280144FF40070C2F212
:1037B000000BC2F200044FF4807602905846214676
:1037C000002253460096CDF804A000F029F8009698
:1037D0004FF090400BF11C064FF4806C0190304686
:1037E000214604225346CDF808C000F019F808F12C
:1037F0004804049920462A464B46CDE901B6009775
:1038000000F02CF8204600F019F83846FFF758FC75
:10381000384600F0A7F82846FFF78AFCFBE70000CF
:1038200010B5DDF810C0DDE9024E80E80E0084819D
:10383000C0F810E0A0F814C010BD000010B5044698
:103840000069FFF729FD6069FFF726FD2068002168
:10385000FFF72EFD0120207610BD000010B5DDF829
:1038600010C0DDE9024E80E81E400021C0F814C0FF
:10387000017610BDB0B50446C0680079012809D0B2
:10388000002818BFB0BD206802210225FFF710FDF7
:103890002576B0BD20680121FFF70AFDA06832211E
:1038A000FFF794FCFAE70000B0B504460069FFF7A3
:1038B000F9FC6069FFF7F6FC20680321FFF7F8FCCC
:1038C00020690021002500F007F86069002100F060
:1038D00003F82576B0BD0000B0B50129817519D077
:1038E000002918BFB0BDD0E900213224846105460B
:1038F0001046FFF719F9D5E9000200684FEAB20255
:10390000C16A042A1ED843F6AC13C0F6000353F86C
:10391000222018E0D0E900210024846105461046E9
:10392000FFF702F9D5E9000100684FEAB101C26A68
:10393000042913D843F6AC12C0F6000252F8211045
:103940004450B0BD5C22614348F21F533231C5F28E
:10395000EB13A1FB031359098150B0BD5C21445006
:10396000B0BD000090ED030AB1EE0E1A0021B4EED6
:10397000410AF1EE10FAA8BF012101717047F1EE82
:10398000100A4FF6FF71C0F2C03120EA010040F08A
:103990004070E1EE100A704734000000380000006B
:1039A0003C0000004000000058000000340000000F
:1039B000380000003C0000004000000058000000FB
:1039C00000000000000000000102030406070809CF
:1039D000A0860100400D0300801A060000350C008F
:1039E00040420F0080841E0000093D0000127A0052
:1039F0000024F40000366E010048E801006CDC028F
:103A0000203A00080000002020000000EC0100081F
:103A1000403A000820000020000800000C020008C6
:103A200001000200040000000004004800040048F7
:103A300000040048010000001000000000093D00E3
:040000050800018965
:00000001FF
